:100000000C942A000C9434000C9434000C943400AA
:100010000C9434000C9434000C9434000C94340090
:100020000C9434000C9434000C9434000C94340080
:100030000C9434000C9434000C9434000C94340070
:100040000C9434000C9434000C9434000C94340060
:100050000C94340011241FBECFE5D8E0DEBFCDBF25
:100060000E9487000C94B4000C9400008FE081BDC6
:10007000089588E181BD11BC08950E9439000E9455
:1000800036000895413069F4E82FF0E0218181E0E5
:1000900090E002C0880F991F6A95E2F7822B818356
:1000A0000895E82FF0E0218181E090E002C0880F00
:1000B000991F6A95E2F78095822381830895E82F3E
:1000C000F0E0828121E030E002C0220F331F6A9508
:1000D000E2F7282B22830895E82FF0E0828121E0C7
:1000E00030E002C0220F331F6A95E2F720952823E3
:1000F00022830895E82FF0E0828121E030E002C001
:10010000220F331F6A95E2F728272283089541E0E2
:1001100060E083E30E94420041E060E080E30E94EF
:1001200042000E94360060E080E30E945F002FEFF3
:1001300089E698E1215080409040E1F700C000003E
:100140000E943D0060E080E30E946C0060E083E379
:100150000E947A002FE788E391E021508040904090
:0C016000E1F700C00000EECFF894FFCFE4
:00000001FF
